:1000000033C059C14AC049C048C047C046C045C0B6
:1000100044C043C042C041C040C03FC03EC03DC0DC
:100020003CC03BC03AC0090212000101008019091E
:10003000040000000000000012011001FF00000891
:10004000C016DC050001010200011003540052003B
:100050004E00470031002E0030000A036D0073008F
:100060006B0064000403090411241FBECFEDCDBF53
:1000700010E0A0E6B0E0ECE2F6E002C005900D92E0
:10008000AC36B107D9F720E0ACE6B0E001C01D9274
:10009000A739B207E1F77FD2C7C2B2CFCF93DF93C0
:1000A00080917D00835087FD89C090917A002091D6
:1000B00079002D3209F080C0883009F07DC0CCE095
:1000C000D0E0C91BD109CF57DF4F83EC80936D007F
:1000D0008AE58093610010926C008881807619F027
:1000E000CE0116D260C08A8110927600998191115A
:1000F00006C01092770026E730E082E050C09530CD
:1001000019F480937E003DC09630A9F59B81913013
:1001100019F488E390E004C0923041F486E290E064
:1001200090937C0080937B0082E121C09330F1F4B6
:10013000811108C084E690E090937C0080937B005E
:1001400084E015C0813041F48AE590E090937C0012
:1001500080937B008AE00BC0823041F48AE490E017
:1001600090937C0080937B0080E101C080E090E46C
:1001700090936C0018C0983079F0993031F48093E6
:10018000800026E730E080E00AC081E09A3009F084
:1001900080E026E730E003C020E830E081E03093E3
:1001A0007C0020937B009F81911104C09E81981751
:1001B00008F4892F8093600010927D008091610087
:1001C00084FF4CC0809160008F3F09F447C0C82F66
:1001D000893008F0C8E08C1B8093600080916D002E
:1001E00098E8892780936D00CC2361F180917B0092
:1001F00090917C0020916C0026FF12C0AEE6B0E02A
:100200002DE630E020953095280F391F4C2F4A0FEE
:10021000F901EA0FFB1FE491ED934A13F9CF09C0EE
:10022000EEE6F0E0DC012C2F2E0F3D9131932E13E2
:10023000FCCF01962FEF2C0F820F911D90937C0025
:1002400080937B006C2F8EE690E031D0CC5FCC3079
:1002500019F08FEF80936000C093610084E190B348
:100260009C7031F48150D9F710927E001092780082
:10027000DF91CF91089585B7826085BF8BB7806489
:100280008BBF0895A82FB92F80E090E041E050EA9D
:10029000609530E009C02D9182279795879510F0E1
:1002A00084279527305EC8F36F5FA8F30895EADFCF
:1002B0008D939D930895CF93CFB7CF93C395839B91
:1002C000E9F7839B09C0839B07C0839B05C0839B81
:1002D00003C0839B01C0A1C0DF93C0917A00DD27DA
:1002E000CF57DF4F839B02C0DF91EBCF2F930F934C
:1002F0001F9300B32FEF03FB20F94F933F9310B3ED
:100300004FEF012703FB21F93BE031C04E7F012F66
:1003100010B3216028C0102F4D7F2260000000B371
:1003200029C04B7F2460012F000010B32BC010B3F5
:10033000477F28602AC04F7E00B320612CC04F7DCC
:1003400010B320622FC04F7B00B3206432C042271D
:1003500000B349934FEF0000102713FB20F910B3AF
:100360001C70C9F1297F91F2012703FB21F900B329
:10037000237F89F2315058F1102713FB22F910B373
:10038000277E79F2012703FB23F92F7C81F200B34A
:10039000102713FB24F92F7971F200C010B3012745
:1003A00003FB25F92F7359F200C000B3102713FB8C
:1003B00026F9223040F200C010B3012703FB27F9D1
:1003C000243028F64F77206810B30000F9CF10E4EE
:1003D0001ABF002717C03B503195C31BD04010E413
:1003E0001ABF0881033CE9F00B34D9F02091780062
:1003F0001981110F1213EDCF093641F10D3211F0B1
:10040000013E39F700937F003F914F911F910F916B
:100410002F91DF91CAB7C6FD51CFCF91CFBFCF91FA
:10042000189520917F00222379F310917D001123EC
:1004300011F5343012F130937D0020937900109142
:100440007A003BE0311B30937A0017C000917D00A9
:1004500001308CF40AE53091610034FD10C0009346
:100460006100CDE6D0E00FC02795A8F45150A9F463
:10047000220F0000F9CF4AE503C042ED01C0432F2F
:10048000C4E1D0E032E011B31C60939A11BB02B317
:1004900020E41CE05F93012756E002BB279520F47F
:1004A000515021F4220FF9CF012756E000003B5AAA
:1004B00002BBD0F2279528F4515029F4220F0000F6
:1004C000F9CF012756E0279502BB20F4515021F4C3
:1004D000220FF9CF012756E02991332302BB21F6E1
:1004E000037F10917E00110FC651D04002BB11F066
:1004F0001093780010E41ABF086011B3137F402FE7
:10050000437F5F9100C000C002BB11BB42BB7CCFE8
:10051000FC018181813059F060F0823061F482E623
:1005200090E090937C0080937B008AE00895C09ACD
:1005300002C0C098089580E00895E2E6F0E090E0FF
:1005400080E0983000F538B130722FEB44ED51E087
:10055000215040405040E1F700C0000028B1207217
:10056000321718F4880F816003C0231710F4880F26
:100570009F5F2FEB34ED41E0215030404040E1F7E8
:1005800000C00000DECF819350E0E238F507C1F6ED
:1005900080E090E0089581E087BB86E021E098B399
:1005A000922798BB3FE74FE492E1315040409040A2
:1005B000E1F700C00000815091F72EE088E190E063
:1005C0000FB6F894A89581BD0FBE21BD54DE8B9A5D
:1005D0008AEFA895EFE6F7E13197F1F700C0000048
:1005E0008150B9F78B9884E021E098B3922798BBAB
:1005F000FFEF3EE944E2F15030404040E1F700C0F7
:100600000000815091F77894C1E0A89588B38C27B9
:1006100088BB8FEF9CEDEDE681509040E040E1F724
:0C06200000C000003BDDF1CFF894FFCFDC
:0C062C00FF5A4655434B20594F55210002
:00000001FF
