:1000000033C059C14AC049C048C047C046C045C0B6
:1000100044C043C042C041C040C03FC03EC03DC0DC
:100020003CC03BC03AC0090212000101008019091E
:10003000040000000000000012011001FF00000891
:10004000C016DC050001010200011003540052003B
:100050004E00470031002E0030000A036D0073008F
:100060006B0064000403090411241FBECFEDCDBF53
:1000700010E0A0E6B0E0E4E8F5E002C005900D92E3
:10008000A236B107D9F720E0A2E6B0E001C01D9288
:10009000AD38B207E1F747D273C2B2CFCF93DF9347
:1000A00080917300835087FD89C0909170002091EA
:1000B0006F002D3209F080C0883009F07DC0CCE09F
:1000C000D0E0C91BD109C958DF4F83EC809363008E
:1000D0008AE580936100109262008881807619F031
:1000E000CE0116D260C08A8110926C009981911164
:1000F00006C010926D002CE630E082E050C09530D2
:1001000019F4809374003DC09630A9F59B8191301D
:1001100019F488E390E004C0923041F486E290E064
:10012000909372008093710082E121C09330F1F4CA
:10013000811108C084E690E0909372008093710072
:1001400084E015C0813041F48AE590E0909372001C
:10015000809371008AE00BC0823041F48AE490E021
:10016000909372008093710080E101C080E090E480
:100170009093620018C0983079F0993031F48093F0
:1001800076002CE630E080E00AC081E09A3009F089
:1001900080E02CE630E003C026E730E081E03093D9
:1001A0007200209371009F81911104C09E81981765
:1001B00008F4892F80936000109273008091610091
:1001C00084FF4CC0809160008F3F09F447C0C82F66
:1001D000893008F0C8E08C1B809360008091630038
:1001E00098E8892780936300CC2361F180917100A6
:1001F000909172002091620026FF12C0A4E6B0E048
:1002000023E630E020953095280F391F4C2F4A0FF8
:10021000F901EA0FFB1FE491ED934A13F9CF09C0EE
:10022000E4E6F0E0DC012C2F2E0F3D9131932E13EC
:10023000FCCF01962FEF2C0F820F911D909372002F
:10024000809371006C2F84E690E031D0CC5FCC308D
:1002500019F08FEF80936000C093610084E190B348
:100260009C7031F48150D9F71092740010926E0096
:10027000DF91CF91089585B7826085BF8BB7806489
:100280008BBF0895A82FB92F80E090E041E050EA9D
:10029000609530E009C02D9182279795879510F0E1
:1002A00084279527305EC8F36F5FA8F30895EADFCF
:1002B0008D939D930895CF93CFB7CF93C395839B91
:1002C000E9F7839B09C0839B07C0839B05C0839B81
:1002D00003C0839B01C0A1C0DF93C0917000DD27E4
:1002E000C958DF4F839B02C0DF91EBCF2F930F9351
:1002F0001F9300B32FEF03FB20F94F933F9310B3ED
:100300004FEF012703FB21F93BE031C04E7F012F66
:1003100010B3216028C0102F4D7F2260000000B371
:1003200029C04B7F2460012F000010B32BC010B3F5
:10033000477F28602AC04F7E00B320612CC04F7DCC
:1003400010B320622FC04F7B00B3206432C042271D
:1003500000B349934FEF0000102713FB20F910B3AF
:100360001C70C9F1297F91F2012703FB21F900B329
:10037000237F89F2315058F1102713FB22F910B373
:10038000277E79F2012703FB23F92F7C81F200B34A
:10039000102713FB24F92F7971F200C010B3012745
:1003A00003FB25F92F7359F200C000B3102713FB8C
:1003B00026F9223040F200C010B3012703FB27F9D1
:1003C000243028F64F77206810B30000F9CF10E4EE
:1003D0001ABF002717C03B503195C31BD04010E413
:1003E0001ABF0881033CE9F00B34D9F020916E006C
:1003F0001981110F1213EDCF093641F10D3211F0B1
:10040000013E39F7009375003F914F911F910F9175
:100410002F91DF91CAB7C6FD51CFCF91CFBFCF91FA
:10042000189520917500222379F310917300112300
:1004300011F5343012F13093730020936F00109156
:1004400070003BE0311B3093700017C000917300C7
:1004500001308CF40AE53091610034FD10C0009346
:100460006100C3E6D0E00FC02795A8F45150A9F46D
:10047000220F0000F9CF4AE503C042ED01C0432F2F
:10048000C4E1D0E032E011B31C60939A11BB02B317
:1004900020E41CE05F93012756E002BB279520F47F
:1004A000515021F4220FF9CF012756E000003B5AAA
:1004B00002BBD0F2279528F4515029F4220F0000F6
:1004C000F9CF012756E0279502BB20F4515021F4C3
:1004D000220FF9CF012756E02991332302BB21F6E1
:1004E000037F10917400110FC651D04002BB11F070
:1004F00010936E0010E41ABF086011B3137F402FF1
:10050000437F5F9100C000C002BB11BB42BB7CCFE8
:10051000FC018181882321F0813019F4C09A01C047
:10052000C09880E0089581E087BB86E021E03FEF3E
:1005300042E597E0315040409040E1F700C00000B4
:1005400098B3922798BB815091F72EE088E190E014
:100550000FB6F894A89581BD0FBE21BD8CDEF8942E
:100560008B9A8AEFA895EFE6F7E13197F1F700C093
:1005700000008150B9F78B987894A8958FDDFDCF56
:04058000F894FFCF1D
:02058400FF5A1C
:00000001FF
