:1000000033C059C14AC049C048C047C046C045C0B6
:1000100044C043C042C041C040C03FC03EC03DC0DC
:100020003CC03BC03AC0090212000101008019091E
:10003000040000000000000012011001FF00000891
:10004000C016DC050001010200011003540052003B
:100050004E00470031002E0030000A036D0073008F
:100060006B0064000403090411241FBECFEDCDBF53
:1000700010E0A0E6B0E0E0EFF5E002C005900D92E0
:10008000A236B107D9F720E0A2E6B0E001C01D9288
:10009000AD3CB207E1F776D2A9C2B2CFCF93DF93DE
:1000A0008091B300835087FD89C09091B00020916A
:1000B000AF002D3209F080C0883009F07DC0CCE05F
:1000C000D0E0C91BD109C954DF4F83EC8093A30052
:1000D0008AE580936100109262008881807619F031
:1000E000CE0134D260C08A811092AC009981911106
:1000F00006C01092AD002CEA30E082E050C095308E
:1001000019F48093B4003DC09630A9F59B819130DD
:1001100019F488E390E004C0923041F486E290E064
:100120009093B2008093B10082E121C09330F1F44A
:10013000811108C084E690E09093B2008093B100F2
:1001400084E015C0813041F48AE590E09093B200DC
:100150008093B1008AE00BC0823041F48AE490E0E1
:100160009093B2008093B10080E101C080E090E400
:100170009093620018C0983079F0993031F48093F0
:10018000B6002CEA30E080E00AC081E09A3009F045
:1001900080E02CEA30E003C026EB30E081E03093D1
:1001A000B2002093B1009F81911104C09E819817E5
:1001B00008F4892F809360001092B3008091610051
:1001C00084FF4CC0809160008F3F09F447C0C82F66
:1001D000893008F0C8E08C1B809360008091A300F8
:1001E00098E889278093A300CC2361F18091B10026
:1001F0009091B2002091620026FF12C0A4EAB0E004
:1002000023EA30E020953095280F391F4C2F4A0FF4
:10021000F901EA0FFB1FE491ED934A13F9CF09C0EE
:10022000E4EAF0E0DC012C2F2E0F3D9131932E13E8
:10023000FCCF01962FEF2C0F820F911D9093B200EF
:100240008093B1006C2F84EA90E031D0CC5FCC3049
:1002500019F08FEF80936000C093610084E190B348
:100260009C7031F48150D9F71092B4001092AE0016
:10027000DF91CF91089585B7826085BF8BB7806489
:100280008BBF0895A82FB92F80E090E041E050EA9D
:10029000609530E009C02D9182279795879510F0E1
:1002A00084279527305EC8F36F5FA8F30895EADFCF
:1002B0008D939D930895CF93CFB7CF93C395839B91
:1002C000E9F7839B09C0839B07C0839B05C0839B81
:1002D00003C0839B01C0A1C0DF93C091B000DD27A4
:1002E000C954DF4F839B02C0DF91EBCF2F930F9355
:1002F0001F9300B32FEF03FB20F94F933F9310B3ED
:100300004FEF012703FB21F93BE031C04E7F012F66
:1003100010B3216028C0102F4D7F2260000000B371
:1003200029C04B7F2460012F000010B32BC010B3F5
:10033000477F28602AC04F7E00B320612CC04F7DCC
:1003400010B320622FC04F7B00B3206432C042271D
:1003500000B349934FEF0000102713FB20F910B3AF
:100360001C70C9F1297F91F2012703FB21F900B329
:10037000237F89F2315058F1102713FB22F910B373
:10038000277E79F2012703FB23F92F7C81F200B34A
:10039000102713FB24F92F7971F200C010B3012745
:1003A00003FB25F92F7359F200C000B3102713FB8C
:1003B00026F9223040F200C010B3012703FB27F9D1
:1003C000243028F64F77206810B30000F9CF10E4EE
:1003D0001ABF002717C03B503195C31BD04010E413
:1003E0001ABF0881033CE9F00B34D9F02091AE002C
:1003F0001981110F1213EDCF093641F10D3211F0B1
:10040000013E39F70093B5003F914F911F910F9135
:100410002F91DF91CAB7C6FD51CFCF91CFBFCF91FA
:1004200018952091B500222379F31091B300112380
:1004300011F5343012F13093B3002093AF001091D6
:10044000B0003BE0311B3093B00017C00091B30007
:1004500001308CF40AE53091610034FD10C0009346
:100460006100C3EAD0E00FC02795A8F45150A9F469
:10047000220F0000F9CF4AE503C042ED01C0432F2F
:10048000C4E1D0E032E011B31C60939A11BB02B317
:1004900020E41CE05F93012756E002BB279520F47F
:1004A000515021F4220FF9CF012756E000003B5AAA
:1004B00002BBD0F2279528F4515029F4220F0000F6
:1004C000F9CF012756E0279502BB20F4515021F4C3
:1004D000220FF9CF012756E02991332302BB21F6E1
:1004E000037F1091B400110FC651D04002BB11F030
:1004F0001093AE0010E41ABF086011B3137F402FB1
:10050000437F5F9100C000C002BB11BB42BB7CCFE8
:10051000E3E6F0E080E090E0A89538B1307200C0EA
:1005200028B12072321718F4880F816003C0231796
:1005300010F4880F9F5F00C0983070F3819380E0C3
:10054000E33AF80739F780E090E00895FC018181F3
:10055000813061F080F0823099F4DADF83E690E058
:100560009093B2008093B10080E4089582B390E24A
:10057000892782BB05C092B320E2922792BB0895DF
:1005800080E008958D9A2FEF35EA4EE021503040FB
:100590004040E1F700C0000086E020E292B39227DD
:1005A00092BB9FEFEDEEF2E09150E040F040E1F7BA
:1005B00000C00000815091F72EE088E190E00FB676
:1005C000F894A89581BD0FBE21BD55DE8B9A8AEFA8
:1005D000A895EFE6F7E13197F1F700C000008150F0
:1005E000B9F78B987894A89559DDFDCFF894FFCF93
:0205F000FF5AB0
:00000001FF
